{
  "contractName": "Product",
  "abi": [
    {
      "inputs": [
        {
          "internalType": "string",
          "name": "_name",
          "type": "string"
        },
        {
          "internalType": "uint256",
          "name": "_price",
          "type": "uint256"
        },
        {
          "internalType": "address",
          "name": "_owner",
          "type": "address"
        }
      ],
      "stateMutability": "nonpayable",
      "type": "constructor"
    },
    {
      "anonymous": false,
      "inputs": [
        {
          "indexed": false,
          "internalType": "address",
          "name": "buyer",
          "type": "address"
        },
        {
          "indexed": false,
          "internalType": "uint256",
          "name": "price",
          "type": "uint256"
        }
      ],
      "name": "ProductPurchased",
      "type": "event"
    },
    {
      "inputs": [],
      "name": "id",
      "outputs": [
        {
          "internalType": "uint256",
          "name": "",
          "type": "uint256"
        }
      ],
      "stateMutability": "view",
      "type": "function"
    },
    {
      "inputs": [],
      "name": "name",
      "outputs": [
        {
          "internalType": "string",
          "name": "",
          "type": "string"
        }
      ],
      "stateMutability": "view",
      "type": "function"
    },
    {
      "inputs": [],
      "name": "owner",
      "outputs": [
        {
          "internalType": "address payable",
          "name": "",
          "type": "address"
        }
      ],
      "stateMutability": "view",
      "type": "function"
    },
    {
      "inputs": [],
      "name": "price",
      "outputs": [
        {
          "internalType": "uint256",
          "name": "",
          "type": "uint256"
        }
      ],
      "stateMutability": "view",
      "type": "function"
    },
    {
      "inputs": [],
      "name": "purchased",
      "outputs": [
        {
          "internalType": "bool",
          "name": "",
          "type": "bool"
        }
      ],
      "stateMutability": "view",
      "type": "function"
    },
    {
      "inputs": [],
      "name": "purchaseProduct",
      "outputs": [],
      "stateMutability": "payable",
      "type": "function"
    }
  ],
  "bytecode": "0x60806040523480156200001157600080fd5b5060405162000af538038062000af583398181016040528101906200003791906200020c565b82600190805190602001906200004f929190620000bc565b508160028190555080600360006101000a81548173ffffffffffffffffffffffffffffffffffffffff021916908373ffffffffffffffffffffffffffffffffffffffff1602179055506000600360146101000a81548160ff0219169083151502179055505050506200041e565b828054620000ca9062000356565b90600052602060002090601f016020900481019282620000ee57600085556200013a565b82601f106200010957805160ff19168380011785556200013a565b828001600101855582156200013a579182015b82811115620001395782518255916020019190600101906200011c565b5b5090506200014991906200014d565b5090565b5b80821115620001685760008160009055506001016200014e565b5090565b6000620001836200017d84620002af565b6200027b565b9050828152602081018484840111156200019c57600080fd5b620001a984828562000320565b509392505050565b600081519050620001c281620003ea565b92915050565b600082601f830112620001da57600080fd5b8151620001ec8482602086016200016c565b91505092915050565b600081519050620002068162000404565b92915050565b6000806000606084860312156200022257600080fd5b600084015167ffffffffffffffff8111156200023d57600080fd5b6200024b86828701620001c8565b93505060206200025e86828701620001f5565b92505060406200027186828701620001b1565b9150509250925092565b6000604051905081810181811067ffffffffffffffff82111715620002a557620002a4620003bb565b5b8060405250919050565b600067ffffffffffffffff821115620002cd57620002cc620003bb565b5b601f19601f8301169050602081019050919050565b6000620002ef82620002f6565b9050919050565b600073ffffffffffffffffffffffffffffffffffffffff82169050919050565b6000819050919050565b60005b838110156200034057808201518184015260208101905062000323565b8381111562000350576000848401525b50505050565b600060028204905060018216806200036f57607f821691505b602082108114156200038657620003856200038c565b5b50919050565b7f4e487b7100000000000000000000000000000000000000000000000000000000600052602260045260246000fd5b7f4e487b7100000000000000000000000000000000000000000000000000000000600052604160045260246000fd5b620003f581620002e2565b81146200040157600080fd5b50565b6200040f8162000316565b81146200041b57600080fd5b50565b6106c7806200042e6000396000f3fe6080604052600436106100555760003560e01c806306fdde031461005a5780633fd0242314610085578063879f9c961461008f5780638da5cb5b146100ba578063a035b1fe146100e5578063af640d0f14610110575b600080fd5b34801561006657600080fd5b5061006f61013b565b60405161007c91906104f9565b60405180910390f35b61008d6101c9565b005b34801561009b57600080fd5b506100a4610360565b6040516100b191906104de565b60405180910390f35b3480156100c657600080fd5b506100cf610373565b6040516100dc919061049a565b60405180910390f35b3480156100f157600080fd5b506100fa610399565b604051610107919061055b565b60405180910390f35b34801561011c57600080fd5b5061012561039f565b604051610132919061055b565b60405180910390f35b600180546101489061061f565b80601f01602080910402602001604051908101604052809291908181526020018280546101749061061f565b80156101c15780601f10610196576101008083540402835291602001916101c1565b820191906000526020600020905b8154815290600101906020018083116101a457829003601f168201915b505050505081565b600360149054906101000a900460ff1615610219576040517f08c379a00000000000000000000000000000000000000000000000000000000081526004016102109061051b565b60405180910390fd5b60025434101561025e576040517f08c379a00000000000000000000000000000000000000000000000000000000081526004016102559061053b565b60405180910390fd5b600360009054906101000a900473ffffffffffffffffffffffffffffffffffffffff1673ffffffffffffffffffffffffffffffffffffffff166108fc349081150290604051600060405180830381858888f193505050501580156102c6573d6000803e3d6000fd5b5033600360006101000a81548173ffffffffffffffffffffffffffffffffffffffff021916908373ffffffffffffffffffffffffffffffffffffffff1602179055506001600360146101000a81548160ff0219169083151502179055507f621472621639c4a230476ed039dff3e99add1be6bca286f58ed565e08e781a5f336002546040516103569291906104b5565b60405180910390a1565b600360149054906101000a900460ff1681565b600360009054906101000a900473ffffffffffffffffffffffffffffffffffffffff1681565b60025481565b60005481565b6103ae816105a4565b82525050565b6103bd81610592565b82525050565b6103cc816105b6565b82525050565b60006103dd82610576565b6103e78185610581565b93506103f78185602086016105ec565b61040081610680565b840191505092915050565b6000610418601983610581565b91507f50726f6475637420616c726561647920707572636861736564000000000000006000830152602082019050919050565b6000610458601083610581565b91507f4e6f7420656e6f756768204574686572000000000000000000000000000000006000830152602082019050919050565b610494816105e2565b82525050565b60006020820190506104af60008301846103a5565b92915050565b60006040820190506104ca60008301856103b4565b6104d7602083018461048b565b9392505050565b60006020820190506104f360008301846103c3565b92915050565b6000602082019050818103600083015261051381846103d2565b905092915050565b600060208201905081810360008301526105348161040b565b9050919050565b600060208201905081810360008301526105548161044b565b9050919050565b6000602082019050610570600083018461048b565b92915050565b600081519050919050565b600082825260208201905092915050565b600061059d826105c2565b9050919050565b60006105af826105c2565b9050919050565b60008115159050919050565b600073ffffffffffffffffffffffffffffffffffffffff82169050919050565b6000819050919050565b60005b8381101561060a5780820151818401526020810190506105ef565b83811115610619576000848401525b50505050565b6000600282049050600182168061063757607f821691505b6020821081141561064b5761064a610651565b5b50919050565b7f4e487b7100000000000000000000000000000000000000000000000000000000600052602260045260246000fd5b6000601f19601f830116905091905056fea2646970667358221220009333f0309e7e8598f63654a35b88751632fc185e020215c7e445e5f1cb4e0a64736f6c63430008000033",
  "immutableReferences": {},
  "source": "// SPDX-License-Identifier: MIT\npragma solidity ^0.8.0;\n\ncontract Product {\n    uint public id;\n    string public name;\n    uint public price;\n    address payable public owner;\n    bool public purchased;\n\n    event ProductPurchased(address buyer, uint price);\n\n    constructor(string memory _name, uint _price, address _owner) {\n        name = _name;\n        price = _price;\n        owner = payable(_owner);\n        purchased = false;\n    }\n\n    function purchaseProduct() public payable {\n        require(!purchased, \"Product already purchased\");\n        require(msg.value >= price, \"Not enough Ether\");\n\n        owner.transfer(msg.value);\n        owner = payable(msg.sender);\n        purchased = true;\n\n        emit ProductPurchased(msg.sender, price);\n    }\n}\n",
  "sourcePath": "/Users/elias.safo/Desktop/BA/DecentralizedMarket2.0/decentralized-marketplace/contracts/Product.sol",
  "compiler": {
    "name": "solc",
    "version": "0.8.0+commit.c7dfd78e.Emscripten.clang"
  },
  "schemaVersion": "3.4.16",
  "updatedAt": "2024-07-12T07:58:25.397Z",
  "devdoc": {
    "kind": "dev",
    "methods": {},
    "version": 1
  },
  "userdoc": {
    "kind": "user",
    "methods": {},
    "version": 1
  }
}