{
  "contractName": "ProductFactory",
  "abi": [
    {
      "anonymous": false,
      "inputs": [
        {
          "indexed": false,
          "internalType": "address",
          "name": "productAddress",
          "type": "address"
        },
        {
          "indexed": false,
          "internalType": "string",
          "name": "name",
          "type": "string"
        },
        {
          "indexed": false,
          "internalType": "uint256",
          "name": "price",
          "type": "uint256"
        },
        {
          "indexed": false,
          "internalType": "address",
          "name": "owner",
          "type": "address"
        }
      ],
      "name": "ProductCreated",
      "type": "event"
    },
    {
      "inputs": [
        {
          "internalType": "uint256",
          "name": "",
          "type": "uint256"
        }
      ],
      "name": "products",
      "outputs": [
        {
          "internalType": "contract Product",
          "name": "",
          "type": "address"
        }
      ],
      "stateMutability": "view",
      "type": "function",
      "constant": true
    },
    {
      "inputs": [
        {
          "internalType": "string",
          "name": "_name",
          "type": "string"
        },
        {
          "internalType": "uint256",
          "name": "_price",
          "type": "uint256"
        }
      ],
      "name": "createProduct",
      "outputs": [],
      "stateMutability": "nonpayable",
      "type": "function"
    },
    {
      "inputs": [],
      "name": "getProducts",
      "outputs": [
        {
          "internalType": "contract Product[]",
          "name": "",
          "type": "address[]"
        }
      ],
      "stateMutability": "view",
      "type": "function",
      "constant": true
    }
  ],
  "bytecode": "0x608060405234801561001057600080fd5b506113e1806100206000396000f3fe60806040523480156200001157600080fd5b5060043610620000465760003560e01c80637acc0b20146200004b578063c29b2f201462000081578063e9300c6c14620000a3575b600080fd5b620000696004803603810190620000639190620003f9565b620000c3565b60405162000078919062000650565b60405180910390f35b6200008b62000103565b6040516200009a91906200062c565b60405180910390f35b620000c16004803603810190620000bb91906200039f565b62000193565b005b60008181548110620000d457600080fd5b906000526020600020016000915054906101000a900473ffffffffffffffffffffffffffffffffffffffff1681565b606060008054806020026020016040519081016040528092919081815260200182805480156200018957602002820191906000526020600020905b8160009054906101000a900473ffffffffffffffffffffffffffffffffffffffff1673ffffffffffffffffffffffffffffffffffffffff16815260200190600101908083116200013e575b5050505050905090565b6000825111620001da576040517f08c379a0000000000000000000000000000000000000000000000000000000008152600401620001d190620006b1565b60405180910390fd5b6000811162000220576040517f08c379a00000000000000000000000000000000000000000000000000000000081526004016200021790620006d3565b60405180910390fd5b6000828233604051620002339062000308565b62000241939291906200066d565b604051809103906000f0801580156200025e573d6000803e3d6000fd5b5090506000819080600181540180825580915050600190039060005260206000200160009091909190916101000a81548173ffffffffffffffffffffffffffffffffffffffff021916908373ffffffffffffffffffffffffffffffffffffffff1602179055507f413566a1b4fcf331c4d565d4738119fa2a245671a20e2d8b71d5a219d7c8bbe281848433604051620002fb9493929190620005d8565b60405180910390a1505050565b610af580620008b783390190565b60006200032d620003278462000729565b620006f5565b9050828152602081018484840111156200034657600080fd5b6200035384828562000817565b509392505050565b600082601f8301126200036d57600080fd5b81356200037f84826020860162000316565b91505092915050565b60008135905062000399816200089c565b92915050565b60008060408385031215620003b357600080fd5b600083013567ffffffffffffffff811115620003ce57600080fd5b620003dc858286016200035b565b9250506020620003ef8582860162000388565b9150509250929050565b6000602082840312156200040c57600080fd5b60006200041c8482850162000388565b91505092915050565b6000620004338383620004ba565b60208301905092915050565b6200044a81620007b1565b82525050565b60006200045d826200076c565b6200046981856200078f565b935062000476836200075c565b8060005b83811015620004ad57815162000491888262000425565b97506200049e8362000782565b9250506001810190506200047a565b5085935050505092915050565b620004c581620007ef565b82525050565b620004d681620007ef565b82525050565b6000620004e98262000777565b620004f58185620007a0565b93506200050781856020860162000826565b62000512816200088b565b840191505092915050565b60006200052c601c83620007a0565b91507f50726f64756374206e616d652063616e6e6f7420626520656d707479000000006000830152602082019050919050565b60006200056e602783620007a0565b91507f50726f64756374207072696365206d757374206265206772656174657220746860008301527f616e207a65726f000000000000000000000000000000000000000000000000006020830152604082019050919050565b620005d281620007e5565b82525050565b6000608082019050620005ef60008301876200043f565b8181036020830152620006038186620004dc565b9050620006146040830185620005c7565b6200062360608301846200043f565b95945050505050565b6000602082019050818103600083015262000648818462000450565b905092915050565b6000602082019050620006676000830184620004cb565b92915050565b60006060820190508181036000830152620006898186620004dc565b90506200069a6020830185620005c7565b620006a960408301846200043f565b949350505050565b60006020820190508181036000830152620006cc816200051d565b9050919050565b60006020820190508181036000830152620006ee816200055f565b9050919050565b6000604051905081810181811067ffffffffffffffff821117156200071f576200071e6200085c565b5b8060405250919050565b600067ffffffffffffffff8211156200074757620007466200085c565b5b601f19601f8301169050602081019050919050565b6000819050602082019050919050565b600081519050919050565b600081519050919050565b6000602082019050919050565b600082825260208201905092915050565b600082825260208201905092915050565b6000620007be82620007c5565b9050919050565b600073ffffffffffffffffffffffffffffffffffffffff82169050919050565b6000819050919050565b6000620007fc8262000803565b9050919050565b60006200081082620007c5565b9050919050565b82818337600083830152505050565b60005b838110156200084657808201518184015260208101905062000829565b8381111562000856576000848401525b50505050565b7f4e487b7100000000000000000000000000000000000000000000000000000000600052604160045260246000fd5b6000601f19601f8301169050919050565b620008a781620007e5565b8114620008b357600080fd5b5056fe60806040523480156200001157600080fd5b5060405162000af538038062000af583398181016040528101906200003791906200020c565b82600190805190602001906200004f929190620000bc565b508160028190555080600360006101000a81548173ffffffffffffffffffffffffffffffffffffffff021916908373ffffffffffffffffffffffffffffffffffffffff1602179055506000600360146101000a81548160ff0219169083151502179055505050506200041e565b828054620000ca9062000356565b90600052602060002090601f016020900481019282620000ee57600085556200013a565b82601f106200010957805160ff19168380011785556200013a565b828001600101855582156200013a579182015b82811115620001395782518255916020019190600101906200011c565b5b5090506200014991906200014d565b5090565b5b80821115620001685760008160009055506001016200014e565b5090565b6000620001836200017d84620002af565b6200027b565b9050828152602081018484840111156200019c57600080fd5b620001a984828562000320565b509392505050565b600081519050620001c281620003ea565b92915050565b600082601f830112620001da57600080fd5b8151620001ec8482602086016200016c565b91505092915050565b600081519050620002068162000404565b92915050565b6000806000606084860312156200022257600080fd5b600084015167ffffffffffffffff8111156200023d57600080fd5b6200024b86828701620001c8565b93505060206200025e86828701620001f5565b92505060406200027186828701620001b1565b9150509250925092565b6000604051905081810181811067ffffffffffffffff82111715620002a557620002a4620003bb565b5b8060405250919050565b600067ffffffffffffffff821115620002cd57620002cc620003bb565b5b601f19601f8301169050602081019050919050565b6000620002ef82620002f6565b9050919050565b600073ffffffffffffffffffffffffffffffffffffffff82169050919050565b6000819050919050565b60005b838110156200034057808201518184015260208101905062000323565b8381111562000350576000848401525b50505050565b600060028204905060018216806200036f57607f821691505b602082108114156200038657620003856200038c565b5b50919050565b7f4e487b7100000000000000000000000000000000000000000000000000000000600052602260045260246000fd5b7f4e487b7100000000000000000000000000000000000000000000000000000000600052604160045260246000fd5b620003f581620002e2565b81146200040157600080fd5b50565b6200040f8162000316565b81146200041b57600080fd5b50565b6106c7806200042e6000396000f3fe6080604052600436106100555760003560e01c806306fdde031461005a5780633fd0242314610085578063879f9c961461008f5780638da5cb5b146100ba578063a035b1fe146100e5578063af640d0f14610110575b600080fd5b34801561006657600080fd5b5061006f61013b565b60405161007c91906104f9565b60405180910390f35b61008d6101c9565b005b34801561009b57600080fd5b506100a4610360565b6040516100b191906104de565b60405180910390f35b3480156100c657600080fd5b506100cf610373565b6040516100dc919061049a565b60405180910390f35b3480156100f157600080fd5b506100fa610399565b604051610107919061055b565b60405180910390f35b34801561011c57600080fd5b5061012561039f565b604051610132919061055b565b60405180910390f35b600180546101489061061f565b80601f01602080910402602001604051908101604052809291908181526020018280546101749061061f565b80156101c15780601f10610196576101008083540402835291602001916101c1565b820191906000526020600020905b8154815290600101906020018083116101a457829003601f168201915b505050505081565b600360149054906101000a900460ff1615610219576040517f08c379a00000000000000000000000000000000000000000000000000000000081526004016102109061051b565b60405180910390fd5b60025434101561025e576040517f08c379a00000000000000000000000000000000000000000000000000000000081526004016102559061053b565b60405180910390fd5b600360009054906101000a900473ffffffffffffffffffffffffffffffffffffffff1673ffffffffffffffffffffffffffffffffffffffff166108fc349081150290604051600060405180830381858888f193505050501580156102c6573d6000803e3d6000fd5b5033600360006101000a81548173ffffffffffffffffffffffffffffffffffffffff021916908373ffffffffffffffffffffffffffffffffffffffff1602179055506001600360146101000a81548160ff0219169083151502179055507f621472621639c4a230476ed039dff3e99add1be6bca286f58ed565e08e781a5f336002546040516103569291906104b5565b60405180910390a1565b600360149054906101000a900460ff1681565b600360009054906101000a900473ffffffffffffffffffffffffffffffffffffffff1681565b60025481565b60005481565b6103ae816105a4565b82525050565b6103bd81610592565b82525050565b6103cc816105b6565b82525050565b60006103dd82610576565b6103e78185610581565b93506103f78185602086016105ec565b61040081610680565b840191505092915050565b6000610418601983610581565b91507f50726f6475637420616c726561647920707572636861736564000000000000006000830152602082019050919050565b6000610458601083610581565b91507f4e6f7420656e6f756768204574686572000000000000000000000000000000006000830152602082019050919050565b610494816105e2565b82525050565b60006020820190506104af60008301846103a5565b92915050565b60006040820190506104ca60008301856103b4565b6104d7602083018461048b565b9392505050565b60006020820190506104f360008301846103c3565b92915050565b6000602082019050818103600083015261051381846103d2565b905092915050565b600060208201905081810360008301526105348161040b565b9050919050565b600060208201905081810360008301526105548161044b565b9050919050565b6000602082019050610570600083018461048b565b92915050565b600081519050919050565b600082825260208201905092915050565b600061059d826105c2565b9050919050565b60006105af826105c2565b9050919050565b60008115159050919050565b600073ffffffffffffffffffffffffffffffffffffffff82169050919050565b6000819050919050565b60005b8381101561060a5780820151818401526020810190506105ef565b83811115610619576000848401525b50505050565b6000600282049050600182168061063757607f821691505b6020821081141561064b5761064a610651565b5b50919050565b7f4e487b7100000000000000000000000000000000000000000000000000000000600052602260045260246000fd5b6000601f19601f830116905091905056fea2646970667358221220009333f0309e7e8598f63654a35b88751632fc185e020215c7e445e5f1cb4e0a64736f6c63430008000033a264697066735822122099167bf8f1cd642abe01fae3399c4388c36b44b2bc768e83f01189776a47e58564736f6c63430008000033",
  "immutableReferences": {},
  "source": "// SPDX-License-Identifier: MIT\npragma solidity ^0.8.0;\n\nimport \"./Product.sol\";\n\ncontract ProductFactory {\n    Product[] public products;\n\n    event ProductCreated(address productAddress, string name, uint price, address owner);\n\n    function createProduct(string memory _name, uint _price) public {\n        require(bytes(_name).length > 0, \"Product name cannot be empty\");\n        require(_price > 0, \"Product price must be greater than zero\");\n\n        Product newProduct = new Product(_name, _price, msg.sender);\n        products.push(newProduct);\n        emit ProductCreated(address(newProduct), _name, _price, msg.sender);\n    }\n\n    function getProducts() public view returns (Product[] memory) {\n        return products;\n    }\n}\n",
  "sourcePath": "/Users/elias.safo/Desktop/BA/DecentralizedMarket2.0/decentralized-marketplace/contracts/ProductFactory.sol",
  "compiler": {
    "name": "solc",
    "version": "0.8.0+commit.c7dfd78e.Emscripten.clang"
  },
  "schemaVersion": "3.4.16",
  "updatedAt": "2024-07-13T15:53:52.489Z",
  "networkType": "ethereum",
  "devdoc": {
    "kind": "dev",
    "methods": {},
    "version": 1
  },
  "userdoc": {
    "kind": "user",
    "methods": {},
    "version": 1
  }
}